:020000040800F2
:1000000058250020590200088719000877170008B2
:1000100085190008E90200082521000800000000F9
:100020000000000000000000000000009D0100082A
:10003000EB02000800000000F1010008191B000895
:1000400073020008730200087302000873020008BC
:1000500073020008730200087302000873020008AC
:10006000730200087302000873020008730200089C
:10007000730200087302000873020008730200088C
:10008000730200087302000873020008730200087C
:10009000730200087302000873020008730200086C
:1000A000730200087302000873020008730200085C
:1000B000730200087302000873020008730200084C
:1000C000730200087302000873020008730200083C
:1000D00073020008A12000087302000873020008E0
:1000E000730200087302000873020008730200081C
:1000F000730200087302000873020008730200080C
:100100000000000000000000000000007302000872
:1001100073020008730200087302000873020008EB
:1001200073020008730200087302000873020008DB
:1001300073020008730200080000000000000000C5
:100140007302000873020008730200080000000038
:10015000000000000000000000000000000000009F
:100160000000000000000000730200087302000895
:100170007302000800000000000000000000000002
:100180000000000073020008DFF80CD000F09AF8BD
:100190000048004745210008582500202B4B1968CE
:1001A0000868B0E8F04F80F30988BFF36F8F4FF015
:1001B000000080F3118870470000000006480068C6
:1001C000006880F3088862B661B6BFF34F8FBFF353
:1001D0006F8F00DF00BF00BF08ED00E0DFF80C000C
:1001E000016841F470010160704700BF88ED00E0D4
:1001F000EFF30980BFF36F8F144B1A681EF0100FD6
:1002000008BF20ED108A20E9F04F106008B44FF0CD
:10021000500080F31188BFF34F8FBFF36F8F02F050
:1002200083FB4FF0000080F3118808BC1968086850
:10023000B0E8F04F1EF0100F08BFB0EC108A80F34A
:100240000988BFF36F8F704700BF00BF34000020E4
:10025000EFF30580704700000648804706480047D6
:10026000FEE7FEE7FEE7FEE7FEE7FEE7FEE7FEE766
:10027000FEE7FEE79D1B00088901000840EA010334
:100280009B0703D009E008C9121F08C0042AFAD24C
:1002900003E011F8013B00F8013B521EF9D2704710
:1002A000D2B201E000F8012B491EFBD270470022B8
:1002B000F6E710B513460A4604461946FFF7F0FF65
:1002C000204610BD064C074D06E0E06840F00103F3
:1002D00094E8070098471034AC42F6D3FFF758FF74
:1002E000D82D0008F82D0008FEE77047DFF86C8075
:1002F0001B4D00BFD8F8000002282BD101020122BB
:10030000284600F030F900224FF40061284600F042
:100310002AF900244FF48076B7000122314628469E
:1003200000F021F901223946284600F01CF901208D
:1003300001F096FF00223946284600F014F9002209
:100340003146284600F00FF9012001F089FF641CB6
:10035000C82CE2DD012001F083FFCBE70000002084
:100360000010004810B590F821100024022903D095
:1003700004218163012418E001680A6822F00E025A
:100380000A6001680A6822F001020A6090F84020C1
:10039000C36B012101FA02F25A6080F8211000219A
:1003A00080F82010416B01B18847204610BD000045
:1003B00070B5044600F0DCF80546601C02D0044825
:1003C0000078044400F0D4F8401BA042FAD370BD7A
:1003D000240000202DE9F84FDFF864B100234FF02E
:1003E000010C4FF0030A4FF00F090BF1040EA0E0CF
:1003F0000CFA03F6324072D04C68022C01D0122C59
:100400000ED1DC0800EB8408D8F820405D07EF0E21
:1004100009FA07F5AC430D69BD402543C8F82050E3
:1004200007685D0091F804800AFA05F408F00308F3
:10043000A74308FA05F848EA0708C0F800804F68A3
:10044000012F05D0022F03D0112F01D0122F11D16F
:100450008768D1F80C80A74308FA05F848EA07082E
:10046000C0F808804768B7430E79C6F300169E406F
:100470003E434660C668A6438C68AC403443C460C3
:100480004C68E40054D52F4CA56945F00105A561E1
:10049000A46923F0030504F0010400942A4C2E19EA
:1004A000B4689D072F0F09FA07F5AC43B0F1904FE0
:1004B00004D0264DA84203D1012512E0002510E00A
:1004C000234DA84201D102250BE0224DA84201D1C3
:1004D000032506E0204DA84202D1042501E027E0D3
:1004E0000525BD402543B560DBF800405D464E68FC
:1004F0009443F60300D514432C60DEF800407546A3
:100500004E689443B60300D514432C600C4D083557
:100510002C684E689443F60200D514432C60084DB5
:100520000C352C684E689443B60200D514432C60F9
:100530005B1C0A6832FA03F47FF45AAFBDE8F88F07
:100540000004014000100240000001400004004887
:1005500000080048000C00480010004800690840EE
:1005600000D0012070470AB18161704781627047F5
:1005700001488068704700002400002090F8412066
:10058000202A24D190F84020012A20D0012280F88E
:100590004020242280F841200268136823F00103E0
:1005A00013600268136823F48053136002681368B1
:1005B0000B43136001680A6842F001020A602021BF
:1005C00080F84110002180F8401008467047022052
:1005D000704790F84120202A22D190F84020012A2B
:1005E0001ED0012280F84020242280F84120026899
:1005F000136823F0010313600268136823F4706327
:1006000043EA0121116001680A6842F001020A60B0
:10061000202180F84110002180F8401008467047E2
:100620000220704770B5040004D094F84100002502
:1006300010B106E0012070BD84F84050204600F063
:100640004DF8242084F841002068016821F0010160
:1006500001606068216820F070600861206881682E
:1006600021F400418160E0680128A06807D040F4CF
:10067000044021688860E068022803D006E040F466
:100680000040F6E721684FF4006048602068416848
:10069000114A114341602068C16821F40041C160E2
:1006A000D4E904010843A16940EA01202168C86037
:1006B000D4E907010843216808602068016841F017
:1006C000010101606564202084F84100256384F8FD
:1006D0004250002070BD00000080000210B586B0BE
:1006E000044614216846FFF7E2FD1249206888425B
:1006F0001ED1114C606940F48020606160696946D8
:1007000000F480200590C02000901220019001206C
:10071000029003200390042004900848FFF75AFE3B
:10072000E06940F40010E061E06900F40010059019
:1007300006B010BD00540040001002400004004804
:1007400002488168027811448160704724000020CB
:10075000074810B5016841F010010160032000F066
:100760006FF80F2000F006F800F024F8002010BD0C
:100770000020024070B50D4D04464FF47A71287880
:10078000B1FBF0F00A490968B1FBF0F000F056FE49
:1007900048B9102C07D200222146501E00F030F834
:1007A00000206C6070BD012070BD0000240000209E
:1007B000300000200B4882B0816941F00101816165
:1007C000816901F001010091C16941F08051C1616D
:1007D000C069002200F0805000900F21901E02B0EE
:1007E00000F00EB80010024000F01F0201219140FD
:1007F0004009800000F1E020C0F8001170470000BF
:10080000F0B40E4B1B680C46C3F30223C3F107057B
:10081000042D00D90425191D072901D2002300E069
:10082000DB1E012606FA05F1491E214099409E4033
:10083000761E16403143F0BC01F0A6B80CED00E086
:10084000064900F0070208684FF6FF03184040EA27
:100850000220034A10430860704700000CED00E0DE
:100860000000FA0570B504004FF0000604D094F8BB
:100870007103002510B106E0012070BD84F87053AB
:10088000204600F043F8032084F8710301220CE0B5
:10089000C6EBC60004EB800080F8292000F8286F22
:1008A000761CC570C560056145616068B042EFD8CF
:1008B000002010E0C0EBC00104EB810181F8CD51B4
:1008C00081F8CC0181F8CF51C1F8D851C1F8DC5181
:1008D000401CC1F8E05161688142EBD82068A0F863
:1008E00040202068A0F840502068A0F844502068BC
:1008F000A0F8505021684FF43F40A1F8400084F820
:10090000245084F87123002070BD000010B586B01B
:10091000044614216846FFF7CAFC13492068884240
:1009200020D1124C606940F4003060616069694612
:1009300000F4003005904FF4C05000900220019068
:1009400000200290032003900E2004904FF090406E
:10095000FFF740FDE06940F40000E061E06900F469
:100960000000059006B010BD005C00400010024081
:100970002DE9F84F04460068804DC0036FD5E86943
:100980000026C00008D4E86940F08050E861E869BA
:10099000012600F08050009079480168C90512D402
:1009A0000168804641F480710160FFF7E1FD074670
:1009B00005E000BFFFF7DCFDC01B642835D8D8F880
:1009C0000000C005F6D5286A10F4407053D0A18805
:1009D00001F4407181424ED0286A4FF4803191FA7F
:1009E000A1F2B2FA82F29700664A4FF0010817446A
:1009F00020F44070C7F8008491FAA1F1B1FA81F1B6
:100A000002EB81010023C1F800342862C00732D014
:100A1000FFF7AEFD074641F2883A4FF0020907E0C2
:100A2000FFF7A6FDC11B514502D90320BDE8F88F91
:100A300099FAA9F1B1FA81F141F040014846B8EBC9
:100A4000511F01D129680CE090FAA0F1B1FA81F1AF
:100A500041F04001B0EB511F02D1296A01E015E0DD
:100A6000696A99FAA9F0B0FA80F000F01F0008FA5C
:100A700000F21142D4D0286A616820F44070084323
:100A800028621EB1E86920F08050E8612078C00734
:100A900005D0286BA16820F0030008432863207864
:100AA000800705D5286BE16820F4403008432863AF
:100AB0002078400705D5286B216920F440200843A1
:100AC00028632078800605D5286BE16920F01000A6
:100AD000084328632068800305D56868A16B20F46B
:100AE0008000084368602078400605D5286B216A9D
:100AF00020F02000084328632078000705D5286BE4
:100B0000616920F44010084328632078C00605D5A9
:100B1000286BA16920F440000843286320888005E1
:100B200005D56868E16A20F4000008436860207811
:100B3000000605D5E86A616A20F4F8700843E862A7
:100B40002088C00505D5E86AA16A20F478500843DA
:100B5000E8622088C00405D5286B216B20F48070E2
:100B6000084328632088800405D5286B616B20F436
:100B7000007008432863002058E70000001002407E
:100B800000700040000042422DE9F0470F4605008A
:100B900069D04A4E306800F00700B84209D2306888
:100BA00020F0070038433060306800F00700B8429A
:100BB00059D12878424C800705D56068A96820F093
:100BC000F000084360602878C0073DD069680120C4
:100BD00001290DD0022923D05FF0020393FAA3F27A
:100BE000B2FA82F242F02002520904D0226803E0F5
:100BF0004FF40033F2E7626A93FAA3F3B3FA83F394
:100C000003F01F03984002422DD0606820F00300DB
:100C100008436060FFF7ACFC804641F288390CE085
:100C20004FF00073DAE700BFFFF7A2FCA0EB08016A
:100C3000494502D90320BDE8F0876068696800F083
:100C40000C00B0EB810FEFD1306800F00700B84224
:100C50000BD9306820F0070038433060306800F06E
:100C60000700B84201D00120E5E72878400705D504
:100C70006068E96820F4E060084360602878000755
:100C800006D56068296920F4605040EAC1006060C0
:100C900000F04CF86168F02292FAA2F201F0F00143
:100CA000B2FA82F2D140074A515CC8400649086056
:100CB0000F20FFF75FFD0020BDE70000002002408D
:100CC00000100240502D000830000020084809495B
:100CD000006849684FF4E06292FAA2F201F4E06120
:100CE000B2FA82F2D140044A515CC8407047000019
:100CF0003000002000100240602D0008084809491B
:100D0000006849684FF4605292FAA2F201F460510F
:100D1000B2FA82F2D140044A515CC84070470000E8
:100D20003000002000100240602D0008144B10B568
:100D30005A68144802F00C0104291DD008291BD15F
:100D40004FF4701494FAA4F402F47011B4FA84F419
:100D5000E1400D4CDB6A615C0F2494FAA4F403F0CB
:100D60000F03B4FA84F4E340074C1034D203E35C7D
:100D700003D5B0FBF3F0484310BD0448484310BD11
:100D80000010024000127A00302D000800093D00DA
:100D90002DE9F84F040071D02078FB4DC0074FF0CB
:100DA000010625D068687704C0F38100012807D0C8
:100DB0006868C0F3810002281BD16868C00318D599
:100DC00097FAA7F0B0FA80F040F02000400901D077
:100DD000286800E0686A97FAA7F1B1FA81F101F09A
:100DE0001F0106FA01F1084265D060680028D2D0E0
:100DF00061E06068B0F5803F0BD010B1B0F5A02F76
:100E000017D0286820F480302860286820F48020DB
:100E100002E0286840F480302860E86AA16820F089
:100E20000F000843E862606820B3FFF7A1FB80462B
:100E30000AE0286840F480202860EAE7FFF798FB82
:100E4000A0EB0800642872D897FAA7F0B0FA80F0F7
:100E500040F02000400901D0286800E0686A97FA55
:100E6000A7F1B1FA81F101F01F0106FA01F1084280
:100E7000E4D020E0FFF77CFB804607E0C7E000BF3E
:100E8000FFF776FBA0EB08006428DCD897FAA7F000
:100E9000B0FA80F040F02000400901D0286800E05E
:100EA000686A97FAA7F1B1FA81F101F01F0106FA19
:100EB00001F10842E4D12078DFF8D08280074FF0BA
:100EC000000A4FF0020759D568684FF0F80B10F090
:100ED0000C0F07D06868C0F3810002281BD1686836
:100EE000C00318D497FAA7F0B0FA80F040F02000C1
:100EF000400901D0286800E0686A97FAA7F1B1FAC2
:100F000081F101F01F0106FA01F108422BD020699E
:100F100001287CD127E0206988B396FAA6F0B0FAC0
:100F200080F048F82060FFF723FB814606E055E19A
:100F3000FFF71EFBA0EB0900022884D897FAA7F060
:100F4000B0FA80F040F02000400901D0286800E0AD
:100F5000686A97FAA7F1B1FA81F101F01F0106FA68
:100F600001F10842E4D028689BFAABF26169B2FA59
:100F700082F220F0F80091400843286025E0FFE766
:100F800096FAA6F1B1FA81F148F821A0FFF7F0FA3C
:100F9000814605E0FFF7ECFAA0EB09000228CCD867
:100FA00097FAA7F0B0FA80F040F02000400901D095
:100FB000286800E0686A97FAA7F1B1FA81F101F0B8
:100FC0001F0106FA01F10842E4D1207800076AD532
:100FD000A069A0B396FAA6F0B0FA80F008EB800002
:100FE000C0F88064FFF7C4FA814605E0FFF7C0FA55
:100FF000A0EB09000228A0D897FAA7F0B0FA80F079
:1010000040F06000B6EB501F02D128680CE077E199
:1010100097FAA7F0B0FA80F040F06000B7EB501FED
:1010200001D1286A00E0686A97FAA7F1B1FA81F164
:1010300001F01F0106FA01F21042D7D033E0FFE7BA
:1010400096FAA6F0B0FA80F008EB8000C0F880A411
:10105000FFF78EFA814605E0FFF78AFAA0EB090058
:1010600002289CD897FAA7F0B0FA80F040F0600010
:10107000B6EB501F01D128680BE097FAA7F0B0FA41
:1010800080F040F06000B7EB501F01D1286A00E00B
:10109000686A97FAA7F1B1FA81F101F01F0106FA27
:1010A00001F21042D8D12078400774D5E8694FF09A
:1010B0000009C00009D4E86940F08050E861E8699F
:1010C0004FF0010900F08050009031480168C905D7
:1010D00012D4016841F480710160FFF749FA834638
:1010E00006E000BFFFF744FAA0EB0B00642875D8B8
:1010F00027480068C005F5D5E06801280AD008B186
:10110000052811D0286A20F001002862286A20F002
:10111000040002E0286A40F001002862E068C8B3D9
:10112000FFF726FA83460DE0286A40F004002862A3
:10113000F0E700BFFFF71CFAA0EB0B0141F288308B
:1011400081424BD897FAA7F0B0FA80F040F0400007
:10115000B6EB501F01D128680BE097FAA7F0B0FA60
:1011600080F040F04000B7EB501F01D1286A00E04A
:10117000686A97FAA7F1B1FA81F101F01F0106FA46
:1011800001F21042D6D035E0001002400000424289
:101190000070004000E034E0FFF7EAF9834607E022
:1011A000FFF7E6F9A0EB0B0141F28830814215D838
:1011B00097FAA7F0B0FA80F040F04000B6EB501F6D
:1011C00001D128680CE097FAA7F0B0FA80F040F05F
:1011D0004000B7EB501F02D1286A01E083E0686A43
:1011E00097FAA7F1B1FA81F101F01F0106FA01F2B5
:1011F0001042D5D1B9F1000F03D0E86920F080503A
:10120000E861E06980B36968C1F38101022977D0A0
:101210004FF080714F00022809D091FAA1F0B0FA86
:1012200080F048F820A0FFF7A3F904465EE050469E
:101230008A4691FAA1F1B1FA81F1C14648F821003C
:10124000FFF796F9804605E0FFF792F9A0EB08005A
:10125000022848D897FAA7F0B0FA80F040F02000B2
:10126000400902D0286801E056E0686A97FAA7F1C1
:10127000B1FA81F101F01F0106FA01F10842E3D150
:10128000D4E908100843696821F4741108436860C0
:101290009AFAAAF0B0FA80F049F82060FFF768F9EE
:1012A000044604E0FFF764F9001B02281BD897FAF4
:1012B000A7F0B0FA80F040F02000400901D0286883
:1012C00000E0686A97FAA7F1B1FA81F101F01F0115
:1012D00006FA01F10842E5D01EE000BFFFF748F929
:1012E000001B022802D90320BDE8F88F97FAA7F067
:1012F000B0FA80F040F02000400902D0286801E0F8
:101300000CE0686A97FAA7F1B1FA81F101F01F01C8
:1013100006FA01F10842E1D10020E5E70120E3E708
:101320002DE9F041040005D00025A56294F85D0088
:1013300018B107E00120BDE8F08184F85C50204638
:1013400000F04AF8022384F85D302068016821F03B
:1013500040010160E0684FF4E066B04201D900212D
:1013600001E04FF48051B0F5706F02D0B04200D070
:10137000A562276B012227B9B04201D9236300E09F
:101380002263D4E901031843D4E9043633431843F4
:10139000238B03F400731843E3691843236A18434B
:1013A000A36A184323681860636B606AA6691843D0
:1013B0000427E36807EA16463343184308432168C5
:1013C00048602068C16921F40061C161256684F824
:1013D0005D200020AFE7000010B586B00446142160
:1013E0006846FEF764FF1349206888421FD11248FF
:1013F000816941F480518161816901F480510591D5
:10140000416941F4003141614069694600F40030AE
:101410000590E0200090022001900020029003201F
:101420000390052004904FF09040FEF7D3FF06B0E4
:1014300010BD0000003001400010024010B5401EF9
:10144000B0F1807F01D3012010BD4FF0E024606136
:101450000F21601700F098FA0020A061072020619A
:10146000002010BD7047704770B5044600680168E1
:1014700021F4907101602068816821F00101816090
:10148000206881684FF00F024D064FF000014FF0C9
:1014900020031AD5856825F040058560606E48B147
:1014A0000B494163606EFEF75DFF60B1606E416B9A
:1014B000884708E0A4F85A102068026284F86A306D
:1014C0002046FFF7D0FF002070BDA4F85A10F4E7C3
:1014D0003D1D00087047000070B503680446D869D8
:1014E000196810F00F0508D1820606D58A0604D5C2
:1014F0002046BDE8704000F04ABC9A68002D66D0D6
:1015000002F0010501F490762E4360D0C60707D0A3
:10151000CE0505D501261E62E36E43F00103E366A6
:10152000830708D5D30706D0266802233362E36E0B
:1015300043F00403E366430708D5D20706D02368C7
:1015400004221A62E26E42F00202E26602070AD543
:1015500001F020022A4306D0236808221A62E26EB4
:1015600042F00802E266E26E002A29D0800604D525
:10157000880602D5204600F00AFCE06E000703D47E
:101580002068806840061CD5204600F0E5FB2068F6
:101590008168490611D5816821F040018160606E43
:1015A00058B11C494163606EFEF7DCFE002807D08D
:1015B000606E416BBDE8704008472046FFF78AFF28
:1015C00070BD2046FFF786FF0020E06670BDC502B3
:1015D0000ED552020CD54FF480101862202084F8EA
:1015E000690084F86A002046BDE87040FFF73ABF02
:1015F000020606D50A0604D52046BDE8704000F074
:10160000EBBC4006E2D54806E0D52046BDE8704078
:1016100000F0B0BB291D000810B5040003D094F8F9
:10162000690010B107E0012010BD002084F86800B7
:10163000204600F027F8242084F86900206801681B
:1016400021F001010160204600F0DCFB0128EBD015
:10165000606A10B1204600F0D5FA2068416821F494
:10166000904141602068816821F02A0181602068F2
:10167000016841F0010101602046BDE8104000F022
:1016800025BB000010B586B0044614216846FEF75D
:101690000EFE16492068884226D11548816941F41A
:1016A00080418161816901F480410591416941F482
:1016B000002141614069694600F400200590302016
:1016C0000090022001900020029003200390072048
:1016D00004900848FEF77EFE002205212520FFF732
:1016E0008FF82520FFF780F806B010BD00380140C4
:1016F000001002400008004890F86A30202B36D1D4
:1017000099B192B190F86830012B30D0012380F864
:1017100068304165A0F85820A0F85A208168FF225F
:10172000B1F5805F03D039B10BE00120704701694A
:10173000D1B940F2FF1102E00169A9B17F21A0F8FF
:101740005C100021C166222280F86A2080F86810AF
:1017500001688A6842F001028A600068016841F409
:101760009071016000207047A0F85C20E9E702203A
:10177000704770477047FEE7124F134D4FF40068F3
:101780004FF480663868032818D101224146284664
:10179000FEF7E9FE0024012231462846FEF7E3FE6B
:1017A0000320FEF705FE002231462846FEF7DBFE49
:1017B0000320FEF7FDFD641CC82CECDD012000F0C9
:1017C0004FFDDFE70000002000100048124F134DCE
:1017D0004FF400784FF480763868032818D101223E
:1017E00041462846FEF7BFFE002401223146284626
:1017F000FEF7B9FE0120FEF7DBFD00223146284648
:10180000FEF7B1FE0120FEF7D3FD641CC82CECDD11
:10181000012000F025FDDFE7000000200010004857
:1018200070B586B014216846FEF741FD264841692F
:1018300041F400114161416901F4001105914169D0
:1018400041F400214161416901F4002105914169A0
:1018500041F480014161416901F4800105914169D0
:1018600041F400314161416901F400310591416960
:1018700041F4802141614069144E00F480204FF60C
:1018800008750590002229463046FEF76CFE372089
:1018900000900F480024CDE9010469463046FEF768
:1018A00099FD00950125CDE9015469463046039420
:1018B000FEF790FDCDE9005469464FF09040029448
:1018C000FEF788FD06B070BD001002400010004811
:1018D000000012100E4810B50C4901600D4941601E
:1018E00000210122C0E90212016141618161C161EF
:1018F0000162FEF797FE00210548FEF73FFEBDE8B6
:10190000104000210248FEF764BE00000054004071
:10191000940000200E0900200E480D494FF440723B
:1019200001604FF4827141600021C0E902124FF45E
:1019300000720161C0E905120822C0E907210723EE
:101940004162C0E90A13C0E90C12FFF7E9BC0000CC
:1019500000300140E00000200948084901604FF4D0
:1019600016514160002181600C22C160C0E904125F
:101970008161C16101624162FFF74EBE00380140E2
:1019800044010020FEE770470907090E002806DA27
:1019900000F00F0000F1E02080F8141D704700F106
:1019A000E02080F800147047124F134D4FF4006888
:1019B0004FF480663868042818D100224146284632
:1019C000FEF7D1FD0024012231462846FEF7CBFD6B
:1019D0000120FEF7EDFC002231462846FEF7C3FD4C
:1019E0000120FEF7E5FC641CC82CECDD012000F0B2
:1019F00037FCDFE70000002000100048124F134DB5
:101A00004FF400784FF480763868042818D100220B
:101A100041462846FEF7A7FD00240122314628460C
:101A2000FEF7A1FD0320FEF7C3FC00223146284645
:101A3000FEF799FD0320FEF7BBFC641CC82CECDD0F
:101A4000012000F00DFCDFE700000020001000483E
:101A5000012000F005FCFBE72B4D2C4C2C4E4FF4E5
:101A600000474FF4804828491422A1F58360FFF70E
:101A700043FE20680022A95C302908D0552908D0EF
:101A80004C2908D0442908D0522908D008E0002069
:101A900006E0012004E0042002E0022000E0032030
:101AA000521C142AE7DB2060002001462954401C08
:101AB0001428FBDB1748FFF7D7FC01214FF09040BB
:101AC000FEF74CFD01280DD0002239463046FEF7C6
:101AD0004AFD012241463046FEF745FD012000F057
:101AE000BFFBC0E720680122401C20603946304619
:101AF000FEF739FD002241463046FEF734FD4FF433
:101B0000FA7000F0ADFBE9E75C0500200000002062
:101B1000001000484401002010B5FEF711FEBDE89A
:101B2000104000F0A9BB000030B59FB028210FA8DD
:101B3000FEF7BDFB142119A8FEF7B9FB3C2168464E
:101B4000FEF7B5FB03200F904FF4A0200024CDE951
:101B50001004012013901020149002250003CDE9F9
:101B60001650000118900FA8FFF712F90F20CDE9C9
:101B700019056802CDE91B40012119A81D94FFF742
:101B800003F805480090680502940E900794684693
:101B9000FEF7EEFE1FB030BD2100020014480168C0
:101BA00041F4700101601348016841F001010160D6
:101BB0004168114A114041600168104A11400160BA
:101BC000016821F480210160416821F4FE01416037
:101BD000C16A21F00F01C162016B094A1140016322
:101BE000002181600249C00380390860704700000D
:101BF00088ED00E0001002400CC07FF8FFFFF6FE09
:101C0000CCFC00FF90F82410C90706D001684A6890
:101C1000836A22F400321A434A6090F8241089073C
:101C200006D501684A68C36A22F480321A434A60C2
:101C300090F82410490706D501684A68036B22F41E
:101C400080221A434A6090F82410090706D50168DB
:101C50004A68436B22F400421A434A6090F8241009
:101C6000C90606D501688A68836B22F480521A433C
:101C70008A6090F82410890606D501688A68C36BCB
:101C800022F400521A438A6090F82410490611D5B4
:101C900001684A68036C22F480121A434A60016C9E
:101CA000B1F5801F06D101684A68436C22F4C00276
:101CB0001A434A6090F82410090606D501684A685C
:101CC000806C22F4002202434A607047F8B5002677
:101CD0000446C666FEF74CFC0546206800686FF0B7
:101CE0007E47000708D52B4600224FF400112046FE
:101CF000009700F0A3F960B92068006840070AD592
:101D00002B4600224FF480012046009700F096F900
:101D100008B10320F8BD202084F8690084F86A0027
:101D200084F868600020F8BD10B5406A0021A0F872
:101D30005A10A0F85210FFF7CDFB10BD10B5406A45
:101D40000021A0F85A1002680F211162202180F8AA
:101D50006A10FFF788FB10BD01680A6822F49072D0
:101D60000A6001688A6822F001028A60202180F8F6
:101D70006A10704710B501680A6822F040020A60D4
:101D8000202180F86910FFF7F5FC002010BD10B588
:101D9000B0F85C2090F86A300168222B05D0886981
:101DA00040F008008861022010BD898C8368B3F57B
:101DB000805F01D103696BB11140426D531C4365D3
:101DC0001170B0F85A10491E0904090CA0F85A10F5
:101DD00007D015E0436D11401980416D891C4165A4
:101DE000EFE701680A6822F490720A6001688A6865
:101DF00022F001028A60202180F86A10FFF7B9FC06
:101E0000002010BD2DE9F041044610202369A2688E
:101E1000E6691A436369002133431A4323680D4678
:101E20001E6849F20C67BE4316431E602268536861
:101E3000E66823F4405333435360236AA2691A438C
:101E400023689E6826F4306616439E605A4F2268C7
:101E50005A4B0603BA420CD11B6B13F0030306D096
:101E6000012B4DD0022B4DD0032B4CD146E001204D
:101E700049E0534FBA420CD11B6B13F440333BD0B3
:101E8000B3423DD0B3F5003F3CD0B3F5403F3AD12B
:101E900034E04C4FBA420DD11B6B13F440232BD0CE
:101EA000B3F5802F2CD0B3F5002F2BD0B3F5402FF6
:101EB00029D123E0444FBA420DD11B6B13F44013D8
:101EC0001AD0B3F5801F1BD0B3F5001F1AD0B3F59D
:101ED000401F18D112E03D4FBA4214D11B6B13F4CE
:101EE000400309D0B3F5800F0AD0B3F5000F09D035
:101EF000B3F5400F07D101E0002004E0022002E02A
:101F0000042000E00820E7694FF400439F4226D1F7
:101F100009281DD2DFE800F00508121C151C1C1C46
:101F20001800FEF7D3FE01E0FEF7E8FE410060680E
:101F300001EB5001B1FBF0F081B20AE02449606886
:101F4000F6E7FEF7F3FEF1E7606806EB5001F1E714
:101F5000012521F00F00C1F3420108431CE00928CC
:101F600025D2DFE800F005080B24102424241C00EF
:101F7000FEF7ACFE09E0FEF7C1FE06E01549606819
:101F800001EB50010EE0FEF7D1FE0146606801EB67
:101F90005001B1FBF0F080B22168C86008E06068D1
:101FA00003EB5001B1FBF0F080B2D06000E00125FE
:101FB0002846BDE8F08100000038014000100240D2
:101FC0000044004000480040004C004000500040E9
:101FD0000024F40000127A0090F86910212901D041
:101FE00002207047B0F8521021B18168B1F5805FCE
:101FF0000BD00CE001680A6822F080020A600068D9
:10200000016841F0400101600CE0016961B1C16CFF
:102010004A1CC26402680978A2F8281030F8521FDE
:10202000491E018000207047C16C02680988C1F315
:1020300008011185C16C891CC164EFE72DE9F041ED
:10204000984617460E460446069D1DE0681C1BD0A8
:102050002DB1FEF78DFAA0EB0800A84214D9206834
:10206000016821F4D07101602068816821F00101CC
:102070008160202084F8690084F86A00002084F8D8
:1020800068000320BDE8F0812068C06936EA0000DE
:1020900004D00020B842D9D00020F3E70120F9E7AE
:1020A0000148FFF719BA000044010020DFF86C80F6
:1020B0001B4D00BFD8F8000001282AD141020022A0
:1020C0002846FEF750FA0122D1022846FEF74BFAC5
:1020D00000244FF48076B700012231462846FEF7EF
:1020E00042FA012239462846FEF73DFA012000F067
:1020F000B7F8002239462846FEF735FA0022314665
:102100002846FEF730FA012000F0AAF8641CC82C1B
:10211000E2DD012000F0A4F8CCE700000000002080
:1021200000100048FEE702E008C8121F08C1002A9C
:10213000FAD170477047002001E001C1121F002A48
:10214000FBD17047A8B0FEF703FBFFF7EDFCFFF7EC
:1021500067FBFFF7BFFBFFF7DFFB3A483849016039
:1021600008214160022181600161002181610162D9
:10217000FEF778FBFFF7F0FB142233496846FEF7C1
:102180007DF80021684600F081F8304C2E49142279
:102190006060143105A8FEF771F8002105A800F071
:1021A00075F82949A060142228310AA8FEF766F8BC
:1021B00000210AA800F06AF82349E06014223C31AB
:1021C0000FA8FEF75BF800210FA800F05FF81E498A
:1021D00020611422503114A8FEF750F8002114A8F1
:1021E00000F054F8184960611422643119A8FEF710
:1021F00045F8002119A800F049F81349A0611422FC
:1022000078311EA8FEF73AF800211EA800F03EF82B
:102210000D49E06114228C3123A8FEF72FF800212C
:1022200023A800F033F8206200F021F8084D4FF4A5
:102230000054002221462846FEF795F9F9E70000F0
:10224000005C0040B4010020902C00080000002039
:102250000010004801460020842900D0C81C7047A7
:1022600010B500B9012000F0FDFA002010BD10B536
:1022700000F01EFB002010BD10B500F035FC012859
:1022800003D0BDE8104000F0EDBB10BD3EB50446E4
:102290000D46B0F90800FFF7DDFF02A9CDE9000106
:1022A000208A2B4682B2D4E9001000F0F1FB01280D
:1022B00001D000203EBD02983EBD00002DE9F04156
:1022C000184C0F460546E6682068001D00F014FA19
:1022D00038B9206890F82C1001208840216981438A
:1022E0002161681C07D137B12168BDE8F0410E4873
:1022F000091D00F039BA20683544B54245602168AF
:1023000005D2A06BBDE8F041091D00F015BA606B65
:10231000091D00F011FAA06A854200D2A562BDE84D
:10232000F0810000340000204C0600202DE9F0412F
:10233000054600F025FA2E4CA068401CA0602068DD
:102340002C4F10B1606940B32DE02560A0680128D2
:1023500029D1002606EB860007EB800000F0DEF9AD
:10236000761C072EF6D323488C3000F0D7F921488D
:10237000A03000F0D3F91F48B43000F0CFF91D4869
:10238000C83000F0CBF91B48DC3000F0C7F9194821
:102390008C3060631430A06305E02068E96AC06A8D
:1023A000884200D82560606A401C6062E96A0120AA
:1023B000226988401043206101EB810007EB800017
:1023C000291D00F0D1F900F0FBF9606900280CD05C
:1023D0002068E96AC06A884207D207494FF08050F6
:1023E0000860BFF34F8FBFF36F8FBDE8F08100002F
:1023F000340000207005002004ED00E070B5114E9F
:10240000114C17E000F088FA3068B8B100F0DEFB3C
:1024100000F0B6F9F068C568281D00F06DF9A068F5
:10242000401EA0606068401E606000F0C9F9284648
:1024300000F00CF860680028E4D170BD00F0C6FB25
:10244000F8E70000380600203400002010B50446EC
:10245000006B00F0C9F92046BDE8104000F0C4B997
:102460000F4841F6F421420705D0C01D0C4A20F068
:102470000700821A891A0B4A00230144C2E90003AB
:102480000839103A21F0070111604B600B600B1AFC
:10249000C0E9001393604FF000405360D060704774
:1024A0006006002080000020074C4FF08056074D4A
:1024B000FFF7A4FF20680128FAD92E60BFF34F8FE1
:1024C000BFF36F8FF4E700007005002004ED00E01B
:1024D0002DE9F0479A46DDE9098481466FF0030350
:1024E000206B03EB82021044089D20F00706700762
:1024F00007D0502080F31188BFF34F8FBFF36F8F49
:10250000FEE723180A5C83F834200A5C12B1401CF1
:102510001028F6D3002784F84370072D00D3062532
:10252000E562C4E91157201D00F003F904F1180019
:1025300000F0FFF82461C5F107006462A061E76460
:1025400084F8507052464946304600F0BFF820608B
:10255000B8F1000F01D0C8F80040BDE8F0870000D6
:1025600030B5114900E011460A688242FBD34B683E
:102570005C18844203D140681844486008464368A8
:102580001C18944209D1084C103C2468A24209D07E
:1025900052681A4442600A6812680260814200D0A0
:1025A000086030BD0460F9E7800000200648416BF8
:1025B000096829B1416BC968C96849688162704777
:1025C0004FF0FF31FAE7000034000020084840686F
:1025D000401C4FF0500080F3118804D0BFF34F8FA0
:1025E000BFF36F8FFEE7BFF34F8FBFF36F8FFEE731
:1025F000880000202DE9F0410546002700F08CF905
:10260000314E306808B9FFF72BFFF06805424BD117
:10261000C5B3083568070ED005F00700C0F1080003
:102620000544680707D0502080F31188BFF34F8F0F
:10263000BFF36F8FFEE72DB37068854234D8224810
:10264000103001460C6801E020460C466168A94242
:1026500002D221680029F7D131688C4224D0076862
:102660002168016060680837411B10290FD9601983
:10267000420708D0502080F31188BFF34F8FBFF37B
:102680006F8FFEE710E041606560FFF769FF6168EA
:102690007068401A7060B268904200D2B060F06812
:1026A00001430020C4E9000100F090FA780707D048
:1026B000502080F31188BFF34F8FBFF36F8FFEE779
:1026C0003846BDE8F08100007000002010B5031FFF
:1026D0004FF080741C601B1F21F001011960191F4D
:1026E000044B0B6014390A60091F6FF00202443872
:1026F0000A6010BDCD250008D0E9013201699A6059
:10270000D0E901235A604A68824201D182684A6056
:10271000002202610868401E0860704700F108014D
:102720004FF0FF32C0E90112C16001610021016078
:10273000704700210161704730B50B685A1C02D008
:1027400000F1080202E0026904E0224654682568AC
:102750009D42FAD953684B6099608A605160086164
:102760000168491C016030BD42684A6093688B6013
:1027700093685960916008610168491C0160704765
:10278000502080F31188BFF34F8FBFF36F8F0A493A
:102790004868401C486001280CD10848006810F0C7
:1027A000FF0F07D0502080F31188BFF34F8FBFF386
:1027B0006F8FFEE7704700008800002004ED00E006
:1027C0000849486828B1401E486001D180F311884B
:1027D0007047502080F31188BFF34F8FBFF36F8F86
:1027E000FEE700008800002070B5002827D0144DB7
:1027F000A0F108046168E868014207D1502080F325
:102800001188BFF34F8FBFF36F8FFEE722683AB195
:10281000502080F31188BFF34F8FBFF36F8FFEE717
:102820008143616000F078F8606869680844686016
:102830002046FFF795FEBDE8704000F0C7B970BDB7
:102840007000002006484FF47A710068B0FBF1F187
:102850004FF0E020491E41610721016170470000EF
:102860003000002010B5020014D00F48006B38B1C2
:10287000502080F31188BFF34F8FBFF36F8FFEE7B7
:1028800000F04AF800211046FFF718FD00F09EF90D
:10289000002807D105494FF080500860BFF34F8FE3
:1028A000BFF36F8F10BD00003400002004ED00E086
:1028B0001CB515480024CDE900402346802213A111
:1028C000144800F0E5F8012809D0401C1AD1502026
:1028D00080F31188BFF34F8FBFF36F8FFEE7502057
:1028E00080F31188BFF34F8FBFF36F8F06484FF00F
:1028F000FF312C38816201214161C460BDE81C4078
:1029000000F040B81CBD00006000002049444C4568
:1029100000000000A92400080248016B491C016363
:1029200070470000340000201448016B11B10121F0
:10293000C16170470021C1610169B1FA81F1C1F142
:102940001F0101EB81020E4951F822306BB101EBFE
:10295000820101F108034A6852684A609A4201D133
:1029600052684A60D16801607047502080F3118836
:10297000BFF34F8FBFF36F8FFEE7000034000020DE
:10298000700500201CB532480168324A914207D1D7
:10299000502080F31188BFF34F8FBFF36F8FFEE796
:1029A00000682C49491E884207D1502080F31188C5
:1029B000BFF34F8FBFF36F8FFEE727490878019071
:1029C000FF20087008788DF800009DF800009DF841
:1029D000002000F0F000904207D0502080F31188D2
:1029E000BFF34F8FBFF36F8FFEE79DF800001B4AC8
:1029F00000F0500010700720906005E09DF8003056
:102A00005B008DF80030401E9DF800301B06F5D4A9
:102A1000000200F4E0609060019808700C482030DB
:102A2000016841F470010160016841F0704101608A
:102A3000FFF708FF00205060FDF7D0FB0848016851
:102A400041F040410160FDF7B9FB00201CBD0000D2
:102A500000ED00E071C20F4100E400E088000020BA
:102A600034EF00E010B5502080F31188BFF34F8F92
:102A7000BFF36F8F00F046F818B104494FF0805053
:102A80000860002080F3118810BD000004ED00E014
:102A90002DE9FF5F8346DDE90E87994616468A4693
:102AA0009000FFF7A7FD05001AD05420FFF7A2FD04
:102AB000040012D025630021CDE90241CDE9008751
:102AC0004B46324651465846FFF702FD2046FFF777
:102AD0002DFC012004B0BDE8F09F2846FFF784FEDE
:102AE0004FF0FF30F6E700000548416919B1006B6F
:102AF00018B1002070470120704702207047000085
:102B0000340000202DE9F0412E4C0027206B40B10D
:102B1000A069401CA061E06900B101273846BDE80A
:102B2000F081E668761CE66013D1606B006838B10E
:102B3000502080F31188BFF34F8FBFF36F8FFEE7F4
:102B4000606BA16B6163A063206A401C2062FFF789
:102B50002DFDA06ADFF87080864209D3606B0068A3
:102B600080B1606BC068C568686886420DD2A0629B
:102B70002068C06A00EB800158F821000128CAD9FA
:102B80000127C8E74FF0FF30F1E7281DFFF7B4FD3C
:102B9000A86A18B105F11800FFF7AEFDE86A012137
:102BA000226981401143216100EB800108EB810023
:102BB000291DFFF7D9FDE86A2168C96A8842CDD38B
:102BC0000127CBE734000020700500202DE9F047F5
:102BD0002C4D00242746286B38B1FFF7D1FD286B18
:102BE000401E2863286B40B146E0502080F31188D6
:102BF000BFF34F8FBFF36F8FFEE7A968224E01200E
:102C0000D1B3A6F1B40980463068E8B1F068C46871
:102C100004F11800FFF770FD201DFFF76DFDE06A5D
:102C20002A6908FA00F11143296100EB800109EBE0
:102C30008100211DFFF798FDE06A2968C96A884272
:102C4000E2D3C5F81C80DFE70CB1FFF7AFFCAC693D
:102C500044B14646FFF756FF00B1EE61641EF9D15C
:102C60000020A861E86938B10849012738070860E1
:102C7000BFF34F8FBFF36F8FFFF7A2FD3846BDE85C
:102C8000F0870000340000202406002004ED00E05E
:102C9000A82D0008591A00080000000000000000DC
:102CA00080000000CC2D0008AD20000800000000CE
:102CB0000000000080000000C02D0008ED020008A8
:102CC000000000000000000080000000682D0008E7
:102CD00079170008000000000000000080000000DC
:102CE000882D0008CD17000800000000000000003B
:102CF00080000000782D0008A919000800000000DD
:102D00000000000080000000982D0008FD19000858
:102D1000000000000000000080000000B02D00084E
:102D2000511A0008000000000000000080000000B0
:102D300002030405060708090A0B0C0D0E0F1010FC
:102D40000102030405060708090A0B0C0D0E0F10FB
:102D5000000000000000000001020304060708094B
:102D6000000000000102030453746570706F725F0D
:102D70004C6566745F58000053746570706F725FC5
:102D800052696768745F580053746570706F725F42
:102D90004C6566745F59000053746570706F725FA4
:102DA00052696768745F5900427574746F6E0000F1
:102DB000536572766F5F55705F446F776E000000E9
:102DC00053746570706F72446F776E0053746570E2
:102DD000706F725570000000F82D00080000002090
:102DE00094000000262100088C2E0008940000208A
:102DF000C42400003621000800000000000000008C
:102E000000000000000000000000000000000000C2
:102E100000000000000000000000000001000000B1
:102E2000100000000000000000127A000000000006
:102E30000000000000000000000000000000000092
:102E40000000000000000000000000000000000082
:102E50000000000000000000000000000000000072
:102E60000000000000000000000000000000000062
:102E70000000000000000000000000000000000052
:0C2E800000000000AAAAAAAA000000009E
:040000050800018965
:00000001FF
